:02000000D12B02
:06000600000000000800EC
:0E000C00213083120313FD00FD0B0A280800AB
:10001A000F3083120313FC004730FD00FD0B132839
:0A002A00FC0B132800000000080082
:1000340083120317A21B2028861321288617221B4C
:100044002528061326280617A21A2A2886122B28E2
:100054008616221A2F2806123028061603136F1844
:100064003528861436288610061403200610031734
:10007400A2193E2886133F288617221943280613FF
:1000840044280617A21848288612492886162218DA
:100094004D2806124E28061603136F18532886148B
:1000A400542886100614032006106F1C5B280D20AC
:0600B4005C280620080094
:1000BA00831203136F1003172108A2001A206F146A
:0200CA0008002C
:1000CC0083120313F8010830FC00700DF80D74084E
:1000DC00F80203187328F8070310F00DFC0B6B28BB
:0200EC0008000A
:0E00EE008316031365088A0064088200080068
:1000FC009028803083160313ED00A328C030ED0048
:10010C00A3289430ED00A328D430ED00A328803030
:10011C00ED00A328831603136D08013A03197F28F9
:10012C006D08023A031984286D08033A03198728CD
:10013C006D08043A03198A288D286E03F0006D08A7
:10014C00F0077008ED00700883120317A2001A2044
:10015C006F100317A0012008831603136F07840088
:10016C0000080319C82883120317200883160313E9
:10017C006F078400000883120317A1005D2003178A
:0C018C00A00AB128831203136F140800AE
:10019800831603136D08031DE1286E080319E1286F
:1001A8008230FC00DD30FD00FD0BD828FC0BD82880
:0E01B800000000000130F000E228F001080015
:1001C600831603136808E900EA01E90DEA0D6910D0
:1001D6000330E9070318EA0A013083120317A20065
:1001E6001A200230FB000430FC00BA30FD00FD0B83
:1001F600FA28FC0BFA28FB0BFA28000001308316BC
:10020600ED000130EE00D830EF007E20023083167C
:10021600ED000130EE006808F000F00D7010F00DF2
:100226007010F00D70107008C03EEF007E20023096
:100236008316ED000830EE006708F000F00D701030
:10024600F00D7010F00D70107008A03EEF007E20CB
:10025600CC298312051483166908EB006A08EC00A2
:100266008030F00080306C067002031D3C296B085C
:10027600003C031851290B30FB002630FC005D3092
:10028600FD00FD0B4429FC0B4429FB0B442900000F
:1002960000000130EB02031CEC0333298312051026
:1002A600DD298312851483166908EB006A08EC00C1
:1002B6008030F00080306C067002031D64296B08E4
:1002C600003C031879290B30FB002630FC005D301A
:1002D600FD00FD0B6C29FC0B6C29FB0B6C29000047
:1002E60000000130EB02031CEC035B29831285102E
:1002F600DD298312051583166908EB006A08EC00F0
:100306008030F00080306C067002031D8C296B086B
:10031600003C0318A1290B30FB002630FC005D30A1
:10032600FD00FD0B9429FC0B9429FB0B942900007E
:1003360000000130EB02031CEC0383298312051134
:10034600DD298312851583166908EB006A08EC001F
:100356008030F00080306C067002031DB4296B08F3
:10036600003C0318C9290B30FB002630FC005D3029
:10037600FD00FD0BBC29FC0BBC29FB0BBC290000B6
:1003860000000130EB02031CEC03AB29831285113C
:10039600DD2983166708003A03192C296708013AF4
:1003A600031954296708023A03197C296708033A96
:1003B6000319A429013083120317A2001A20013061
:1003C6008316ED000130EE003430EF007E2002305F
:1003D6008316ED000130EE004B30EF007E20153025
:1003E600FB004B30FC00BE30FD00FD0BF829FC0B7A
:0A03F600F829FB0BF82900000800AD
:1004000083160313E7010230E8000130831203175B
:10041000A2001A200630FB001330FC00AD30FD00B6
:10042000FD0B102AFC0B102AFB0B102A0000000009
:1004300083122208B3002008A10000300619013001
:10044000A200003086190130A000831667086806F4
:100450000319592A0330FB008A30FC005530FD0097
:10046000FD0B302AFC0B302AFB0B302A0000000069
:10047000013083120317A2001A2001308316ED0009
:100480000130EE003F30EF007E2002308316ED0099
:100490000130EE006708F000F00D7010F00D7010E4
:1004A000F00D70107008C03EEF007E2083166708C4
:1004B000E800831222088316ED00831233088316A6
:1004C000EE00CC2070080319752A0230FB000430BE
:1004D000FC00BA30FD00FD0B6B2AFC0B6B2AFB0BFA
:1004E0006B2A00006708F0009A2A831220088316FE
:1004F000ED00831221088316EE00CC20700803194A
:10050000992AE70A0330F4006708F00066207808AB
:10051000F00070088316E7000230FB000430FC0096
:10052000BA30FD00FD0B922AFC0B922AFB0B922A9B
:060530000000182A08007B
:1005360083160313E7010330E80001308312031723
:10054600A2001A200330FB008A30FC005530FD0063
:10055600FD0BAB2AFC0BAB2AFB0BAB2A0000000001
:1005660083122208B3002008A100003006190130CA
:10057600A200003086190130A000831667086806BD
:100586000319E62A013083120317A2001A2001304C
:100596008316ED000130EE002330EF007E2002309E
:1005A6008316ED000130EE006708F000F00D7010C4
:1005B600F00D7010F00D70107008A03EEF007E2058
:1005C60083166708E800831222088316ED0083125B
:1005D60033088316EE00CC2070080319022B023074
:1005E600FB000430FC00BA30FD00FD0BF82AFC0BC2
:1005F600F82AFB0BF82A00006708F0001F2B83126D
:1006060020088316ED00831221088316EE00CC2005
:10061600700803191E2BE70A0330E7050230FB00BA
:100626000430FC00BA30FD00FD0B172BFC0B172B1A
:0A063600FB0B172B0000B32A08008D
:1006400083160313061086100612861206138613ED
:1006500083120610861086130613861206120D20CA
:100660000D200D20861606160614032006100D20F8
:100670000614032006100D200614032006100D207A
:1006800006120614032006100D200614032006107F
:10069000861286170614032006100D2086130616F0
:1006A00006140320061006120614032006100D205F
:1006B00006140320061006160614032006100D204B
:1006C000061206140320061086170617861606164D
:0C06D0000614032006100D206F14080013
:1006DC0077208A110A128000840AE40A0319E50AB9
:0806EC00F003031D6E2B080052
:1006F400013083120317A2001A2001308316ED0083
:100704000130EE006630EF007E2002308316ED00EB
:100714000130EE005530EF007E200630FB00133030
:10072400FC00AD30FD00FD0B952BFC0B952BFB0B5A
:10073400952B0000000083122208B3002008A100BA
:10074400003006190130A200003086190130A000E3
:1007540022088316ED00831233088316EE00CC20A2
:100764007008E700831220088316ED008312210825
:100774008316EE00CC206708F0040319C22BC32BA8
:100784009D2B0230FB000430FC00BA30FD00FD0B51
:0E079400C92BFC0BC92BFB0BC92B0000080066
:1007A200842483160313061686168501202301303E
:1007B2000317A2001A200C300317A2001A207A2372
:1007C2009B227008E60000226608E7007008E80035
:0607D200E320E02BEB2BFD
:10090800203084004F3083120313F000F130831637
:10091800E4000330E5006E23A03084004430031364
:10092800F00040308316E4000430E5006E23080030
:0207E2000034E1
:0207E4000034DF
:0207E6000034DD
:1007E800533465346C34653463347434203462347F
:1007F8006534763465347234613467346534003472
:020808000034BA
:10080A0045346E346A346F347934203479346F3431
:06081A0075347234003455
:10082000533465346C346534633474342034733435
:0808300069347A3465340034A8
:1008380062346534763465347234613467346534CF
:040848002134003423
:10084C0050347234653473347334203461346E3400
:10085C007934203462347534743474346F346E34B7
:02086C00003456
:10086E00573465346C3463346F346D3465342134ED
:02087E00003444
:1008800043346134693470346934003400340034E2
:10089000573469346E346534003400340034003425
:1008A000423465346534723400340034003400342A
:1008B00057346834693473346B3479340034003419
:1008C00053346D3461346C346C340034003400348F
:1008D0004D3465346434693475346D340034003417
:1008E0004C3461347234673465340034003400347D
:1008F00050346C3465346134733465342034573487
:080900006134693474340034E1
:02400E006A2125
:00000001FF
